{
  "contractName": "Marketplace",
  "abi": [
    {
      "inputs": [],
      "payable": false,
      "stateMutability": "nonpayable",
      "type": "constructor"
    },
    {
      "anonymous": false,
      "inputs": [
        {
          "indexed": false,
          "internalType": "uint256",
          "name": "id",
          "type": "uint256"
        },
        {
          "indexed": false,
          "internalType": "string",
          "name": "name",
          "type": "string"
        },
        {
          "indexed": false,
          "internalType": "uint256",
          "name": "price",
          "type": "uint256"
        },
        {
          "indexed": false,
          "internalType": "string",
          "name": "bhk",
          "type": "string"
        },
        {
          "indexed": false,
          "internalType": "string",
          "name": "location",
          "type": "string"
        },
        {
          "indexed": false,
          "internalType": "address payable",
          "name": "owner",
          "type": "address"
        },
        {
          "indexed": false,
          "internalType": "address payable",
          "name": "rentee",
          "type": "address"
        },
        {
          "indexed": false,
          "internalType": "bool",
          "name": "purchased",
          "type": "bool"
        }
      ],
      "name": "HouseCreated",
      "type": "event"
    },
    {
      "anonymous": false,
      "inputs": [
        {
          "indexed": false,
          "internalType": "uint256",
          "name": "id",
          "type": "uint256"
        },
        {
          "indexed": false,
          "internalType": "string",
          "name": "name",
          "type": "string"
        },
        {
          "indexed": false,
          "internalType": "uint256",
          "name": "price",
          "type": "uint256"
        },
        {
          "indexed": false,
          "internalType": "string",
          "name": "bhk",
          "type": "string"
        },
        {
          "indexed": false,
          "internalType": "string",
          "name": "location",
          "type": "string"
        },
        {
          "indexed": false,
          "internalType": "address payable",
          "name": "owner",
          "type": "address"
        },
        {
          "indexed": false,
          "internalType": "address payable",
          "name": "rentee",
          "type": "address"
        },
        {
          "indexed": false,
          "internalType": "bool",
          "name": "purchased",
          "type": "bool"
        }
      ],
      "name": "HouseRented",
      "type": "event"
    },
    {
      "anonymous": false,
      "inputs": [
        {
          "indexed": false,
          "internalType": "uint256",
          "name": "id",
          "type": "uint256"
        },
        {
          "indexed": false,
          "internalType": "string",
          "name": "name",
          "type": "string"
        },
        {
          "indexed": false,
          "internalType": "uint256",
          "name": "price",
          "type": "uint256"
        },
        {
          "indexed": false,
          "internalType": "string",
          "name": "bhk",
          "type": "string"
        },
        {
          "indexed": false,
          "internalType": "string",
          "name": "location",
          "type": "string"
        },
        {
          "indexed": false,
          "internalType": "address payable",
          "name": "owner",
          "type": "address"
        },
        {
          "indexed": false,
          "internalType": "address payable",
          "name": "rentee",
          "type": "address"
        },
        {
          "indexed": false,
          "internalType": "bool",
          "name": "purchased",
          "type": "bool"
        }
      ],
      "name": "HouseReturned",
      "type": "event"
    },
    {
      "constant": true,
      "inputs": [
        {
          "internalType": "uint256",
          "name": "",
          "type": "uint256"
        }
      ],
      "name": "houses",
      "outputs": [
        {
          "internalType": "uint256",
          "name": "id",
          "type": "uint256"
        },
        {
          "internalType": "string",
          "name": "name",
          "type": "string"
        },
        {
          "internalType": "uint256",
          "name": "price",
          "type": "uint256"
        },
        {
          "internalType": "string",
          "name": "bhk",
          "type": "string"
        },
        {
          "internalType": "string",
          "name": "location",
          "type": "string"
        },
        {
          "internalType": "address payable",
          "name": "owner",
          "type": "address"
        },
        {
          "internalType": "address payable",
          "name": "rentee",
          "type": "address"
        },
        {
          "internalType": "bool",
          "name": "purchased",
          "type": "bool"
        }
      ],
      "payable": false,
      "stateMutability": "view",
      "type": "function"
    },
    {
      "constant": true,
      "inputs": [
        {
          "internalType": "uint256",
          "name": "",
          "type": "uint256"
        }
      ],
      "name": "ipfs",
      "outputs": [
        {
          "internalType": "uint256",
          "name": "ipfs_id",
          "type": "uint256"
        },
        {
          "internalType": "uint256",
          "name": "house_id",
          "type": "uint256"
        },
        {
          "internalType": "string",
          "name": "IPFS_Hash",
          "type": "string"
        },
        {
          "internalType": "address payable",
          "name": "rentee",
          "type": "address"
        }
      ],
      "payable": false,
      "stateMutability": "view",
      "type": "function"
    },
    {
      "constant": true,
      "inputs": [],
      "name": "ipfsCount",
      "outputs": [
        {
          "internalType": "uint256",
          "name": "",
          "type": "uint256"
        }
      ],
      "payable": false,
      "stateMutability": "view",
      "type": "function"
    },
    {
      "constant": true,
      "inputs": [],
      "name": "ipfsHash",
      "outputs": [
        {
          "internalType": "string",
          "name": "",
          "type": "string"
        }
      ],
      "payable": false,
      "stateMutability": "view",
      "type": "function"
    },
    {
      "constant": true,
      "inputs": [],
      "name": "name",
      "outputs": [
        {
          "internalType": "string",
          "name": "",
          "type": "string"
        }
      ],
      "payable": false,
      "stateMutability": "view",
      "type": "function"
    },
    {
      "constant": true,
      "inputs": [],
      "name": "productCount",
      "outputs": [
        {
          "internalType": "uint256",
          "name": "",
          "type": "uint256"
        }
      ],
      "payable": false,
      "stateMutability": "view",
      "type": "function"
    },
    {
      "constant": false,
      "inputs": [
        {
          "internalType": "string",
          "name": "_name",
          "type": "string"
        },
        {
          "internalType": "uint256",
          "name": "_price",
          "type": "uint256"
        },
        {
          "internalType": "string",
          "name": "_bhk",
          "type": "string"
        },
        {
          "internalType": "string",
          "name": "_location",
          "type": "string"
        }
      ],
      "name": "createHouse",
      "outputs": [],
      "payable": false,
      "stateMutability": "nonpayable",
      "type": "function"
    },
    {
      "constant": false,
      "inputs": [
        {
          "internalType": "uint256",
          "name": "_id",
          "type": "uint256"
        }
      ],
      "name": "rentHouse",
      "outputs": [],
      "payable": true,
      "stateMutability": "payable",
      "type": "function"
    },
    {
      "constant": false,
      "inputs": [
        {
          "internalType": "uint256",
          "name": "_id",
          "type": "uint256"
        }
      ],
      "name": "returnHouse",
      "outputs": [],
      "payable": false,
      "stateMutability": "nonpayable",
      "type": "function"
    },
    {
      "constant": false,
      "inputs": [
        {
          "internalType": "uint256",
          "name": "_id",
          "type": "uint256"
        },
        {
          "internalType": "string",
          "name": "x",
          "type": "string"
        }
      ],
      "name": "sendHash",
      "outputs": [],
      "payable": false,
      "stateMutability": "nonpayable",
      "type": "function"
    },
    {
      "constant": true,
      "inputs": [
        {
          "internalType": "uint256",
          "name": "_id",
          "type": "uint256"
        }
      ],
      "name": "getHash",
      "outputs": [
        {
          "internalType": "string",
          "name": "x",
          "type": "string"
        }
      ],
      "payable": false,
      "stateMutability": "view",
      "type": "function"
    },
    {
      "constant": true,
      "inputs": [
        {
          "internalType": "uint256",
          "name": "_id",
          "type": "uint256"
        },
        {
          "internalType": "address",
          "name": "verifyRentee",
          "type": "address"
        }
      ],
      "name": "verifyQR",
      "outputs": [
        {
          "internalType": "bool",
          "name": "",
          "type": "bool"
        }
      ],
      "payable": false,
      "stateMutability": "view",
      "type": "function"
    }
  ],
  "bytecode": "0x6080604052600060015560006002553480156200001b57600080fd5b506040518060400160405280601681526020017f4d6168616e7468657368204d61726b6574706c61636500000000000000000000815250600090805190602001906200006992919062000070565b506200011f565b828054600181600116156101000203166002900490600052602060002090601f016020900481019282601f10620000b357805160ff1916838001178555620000e4565b82800160010185558215620000e4579182015b82811115620000e3578251825591602001919060010190620000c6565b5b509050620000f39190620000f7565b5090565b6200011c91905b8082111562000118576000816000905550600101620000fe565b5090565b90565b612c48806200012f6000396000f3fe6080604052600436106100a75760003560e01c8063bf24c0de11610064578063bf24c0de14610708578063c552d694146107fd578063c623674f14610870578063cc9a4b0414610900578063d7c8bebe1461092e578063e0f6ef8714610959576100a7565b806306fdde03146100ac5780634937860f1461013c5780636b2fafa914610177578063926d031e1461022b578063aeda852f1461042b578063bd79497514610636575b600080fd5b3480156100b857600080fd5b506100c1610984565b6040518080602001828103825283818151815260200191508051906020019080838360005b838110156101015780820151818401526020810190506100e6565b50505050905090810190601f16801561012e5780820380516001836020036101000a031916815260200191505b509250505060405180910390f35b34801561014857600080fd5b506101756004803603602081101561015f57600080fd5b8101908080359060200190929190505050610a22565b005b34801561018357600080fd5b506101b06004803603602081101561019a57600080fd5b81019080803590602001909291905050506110db565b6040518080602001828103825283818151815260200191508051906020019080838360005b838110156101f05780820151818401526020810190506101d5565b50505050905090810190601f16801561021d5780820380516001836020036101000a031916815260200191505b509250505060405180910390f35b34801561023757600080fd5b506104296004803603608081101561024e57600080fd5b810190808035906020019064010000000081111561026b57600080fd5b82018360208201111561027d57600080fd5b8035906020019184600183028401116401000000008311171561029f57600080fd5b91908080601f016020809104026020016040519081016040528093929190818152602001838380828437600081840152601f19601f820116905080830192505050505050509192919290803590602001909291908035906020019064010000000081111561030c57600080fd5b82018360208201111561031e57600080fd5b8035906020019184600183028401116401000000008311171561034057600080fd5b91908080601f016020809104026020016040519081016040528093929190818152602001838380828437600081840152601f19601f820116905080830192505050505050509192919290803590602001906401000000008111156103a357600080fd5b8201836020820111156103b557600080fd5b803590602001918460018302840111640100000000831117156103d757600080fd5b91908080601f016020809104026020016040519081016040528093929190818152602001838380828437600081840152601f19601f820116905080830192505050505050509192919290505050611250565b005b34801561043757600080fd5b506104646004803603602081101561044e57600080fd5b810190808035906020019092919050505061161d565b604051808981526020018060200188815260200180602001806020018773ffffffffffffffffffffffffffffffffffffffff1673ffffffffffffffffffffffffffffffffffffffff1681526020018673ffffffffffffffffffffffffffffffffffffffff1673ffffffffffffffffffffffffffffffffffffffff1681526020018515151515815260200184810384528b818151815260200191508051906020019080838360005b8381101561052657808201518184015260208101905061050b565b50505050905090810190601f1680156105535780820380516001836020036101000a031916815260200191505b50848103835289818151815260200191508051906020019080838360005b8381101561058c578082015181840152602081019050610571565b50505050905090810190601f1680156105b95780820380516001836020036101000a031916815260200191505b50848103825288818151815260200191508051906020019080838360005b838110156105f25780820151818401526020810190506105d7565b50505050905090810190601f16801561061f5780820380516001836020036101000a031916815260200191505b509b50505050505050505050505060405180910390f35b34801561064257600080fd5b506107066004803603604081101561065957600080fd5b81019080803590602001909291908035906020019064010000000081111561068057600080fd5b82018360208201111561069257600080fd5b803590602001918460018302840111640100000000831117156106b457600080fd5b91908080601f016020809104026020016040519081016040528093929190818152602001838380828437600081840152601f19601f82011690508083019250505050505050919291929050505061187a565b005b34801561071457600080fd5b506107416004803603602081101561072b57600080fd5b8101908080359060200190929190505050611e14565b60405180858152602001848152602001806020018373ffffffffffffffffffffffffffffffffffffffff1673ffffffffffffffffffffffffffffffffffffffff168152602001828103825284818151815260200191508051906020019080838360005b838110156107bf5780820151818401526020810190506107a4565b50505050905090810190601f1680156107ec5780820380516001836020036101000a031916815260200191505b509550505050505060405180910390f35b34801561080957600080fd5b506108566004803603604081101561082057600080fd5b8101908080359060200190929190803573ffffffffffffffffffffffffffffffffffffffff169060200190929190505050611efc565b604051808215151515815260200191505060405180910390f35b34801561087c57600080fd5b5061088561224a565b6040518080602001828103825283818151815260200191508051906020019080838360005b838110156108c55780820151818401526020810190506108aa565b50505050905090810190601f1680156108f25780820380516001836020036101000a031916815260200191505b509250505060405180910390f35b61092c6004803603602081101561091657600080fd5b81019080803590602001909291905050506122e8565b005b34801561093a57600080fd5b50610943612a31565b6040518082815260200191505060405180910390f35b34801561096557600080fd5b5061096e612a37565b6040518082815260200191505060405180910390f35b60008054600181600116156101000203166002900480601f016020809104026020016040519081016040528092919081815260200182805460018160011615610100020316600290048015610a1a5780601f106109ef57610100808354040283529160200191610a1a565b820191906000526020600020905b8154815290600101906020018083116109fd57829003601f168201915b505050505081565b610a2a612a3d565b600460008381526020019081526020016000206040518061010001604052908160008201548152602001600182018054600181600116156101000203166002900480601f016020809104026020016040519081016040528092919081815260200182805460018160011615610100020316600290048015610aec5780601f10610ac157610100808354040283529160200191610aec565b820191906000526020600020905b815481529060010190602001808311610acf57829003601f168201915b5050505050815260200160028201548152602001600382018054600181600116156101000203166002900480601f016020809104026020016040519081016040528092919081815260200182805460018160011615610100020316600290048015610b985780601f10610b6d57610100808354040283529160200191610b98565b820191906000526020600020905b815481529060010190602001808311610b7b57829003601f168201915b50505050508152602001600482018054600181600116156101000203166002900480601f016020809104026020016040519081016040528092919081815260200182805460018160011615610100020316600290048015610c3a5780601f10610c0f57610100808354040283529160200191610c3a565b820191906000526020600020905b815481529060010190602001808311610c1d57829003601f168201915b505050505081526020016005820160009054906101000a900473ffffffffffffffffffffffffffffffffffffffff1673ffffffffffffffffffffffffffffffffffffffff1673ffffffffffffffffffffffffffffffffffffffff1681526020016006820160009054906101000a900473ffffffffffffffffffffffffffffffffffffffff1673ffffffffffffffffffffffffffffffffffffffff1673ffffffffffffffffffffffffffffffffffffffff1681526020016006820160149054906101000a900460ff16151515158152505090503373ffffffffffffffffffffffffffffffffffffffff168160a0015173ffffffffffffffffffffffffffffffffffffffff1614610d4857600080fd5b60008160e001901515908115158152505060008160c0019073ffffffffffffffffffffffffffffffffffffffff16908173ffffffffffffffffffffffffffffffffffffffff16815250508060046000848152602001908152602001600020600082015181600001556020820151816001019080519060200190610dcc929190612ab0565b50604082015181600201556060820151816003019080519060200190610df3929190612ab0565b506080820151816004019080519060200190610e10929190612ab0565b5060a08201518160050160006101000a81548173ffffffffffffffffffffffffffffffffffffffff021916908373ffffffffffffffffffffffffffffffffffffffff16021790555060c08201518160060160006101000a81548173ffffffffffffffffffffffffffffffffffffffff021916908373ffffffffffffffffffffffffffffffffffffffff16021790555060e08201518160060160146101000a81548160ff0219169083151502179055509050507f2a232a46bab722de3eed250ae6817f33b4ee20a4c2fb0c86ee5c6311e1f627a660015482602001518360400151846060015185608001518660a001518760c001516000604051808981526020018060200188815260200180602001806020018773ffffffffffffffffffffffffffffffffffffffff1673ffffffffffffffffffffffffffffffffffffffff1681526020018673ffffffffffffffffffffffffffffffffffffffff1673ffffffffffffffffffffffffffffffffffffffff1681526020018515151515815260200184810384528b818151815260200191508051906020019080838360005b83811015610fc8578082015181840152602081019050610fad565b50505050905090810190601f168015610ff55780820380516001836020036101000a031916815260200191505b50848103835289818151815260200191508051906020019080838360005b8381101561102e578082015181840152602081019050611013565b50505050905090810190601f16801561105b5780820380516001836020036101000a031916815260200191505b50848103825288818151815260200191508051906020019080838360005b83811015611094578082015181840152602081019050611079565b50505050905090810190601f1680156110c15780820380516001836020036101000a031916815260200191505b509b50505050505050505050505060405180910390a15050565b60606000600190505b6002548111611249576110f5612b30565b600560008381526020019081526020016000206040518060800160405290816000820154815260200160018201548152602001600282018054600181600116156101000203166002900480601f0160208091040260200160405190810160405280929190818152602001828054600181600116156101000203166002900480156111c05780601f10611195576101008083540402835291602001916111c0565b820191906000526020600020905b8154815290600101906020018083116111a357829003601f168201915b505050505081526020016003820160009054906101000a900473ffffffffffffffffffffffffffffffffffffffff1673ffffffffffffffffffffffffffffffffffffffff1673ffffffffffffffffffffffffffffffffffffffff16815250509050838160200151141561123b5780604001519250505061124b565b5080806001019150506110e4565b505b919050565b600084511161125e57600080fd5b6000831161126b57600080fd5b60016000815480929190600101919050555060405180610100016040528060015481526020018581526020018481526020018381526020018281526020013373ffffffffffffffffffffffffffffffffffffffff168152602001600073ffffffffffffffffffffffffffffffffffffffff16815260200160001515815250600460006001548152602001908152602001600020600082015181600001556020820151816001019080519060200190611324929190612ab0565b5060408201518160020155606082015181600301908051906020019061134b929190612ab0565b506080820151816004019080519060200190611368929190612ab0565b5060a08201518160050160006101000a81548173ffffffffffffffffffffffffffffffffffffffff021916908373ffffffffffffffffffffffffffffffffffffffff16021790555060c08201518160060160006101000a81548173ffffffffffffffffffffffffffffffffffffffff021916908373ffffffffffffffffffffffffffffffffffffffff16021790555060e08201518160060160146101000a81548160ff0219169083151502179055509050507f5a7830f9919f46a3d816caf17fe511b17c2db9678b35709e1acdf158b812aa5d6001548585858533600080604051808981526020018060200188815260200180602001806020018773ffffffffffffffffffffffffffffffffffffffff1673ffffffffffffffffffffffffffffffffffffffff1681526020018673ffffffffffffffffffffffffffffffffffffffff1673ffffffffffffffffffffffffffffffffffffffff1681526020018515151515815260200184810384528b818151815260200191508051906020019080838360005b838110156115085780820151818401526020810190506114ed565b50505050905090810190601f1680156115355780820380516001836020036101000a031916815260200191505b50848103835289818151815260200191508051906020019080838360005b8381101561156e578082015181840152602081019050611553565b50505050905090810190601f16801561159b5780820380516001836020036101000a031916815260200191505b50848103825288818151815260200191508051906020019080838360005b838110156115d45780820151818401526020810190506115b9565b50505050905090810190601f1680156116015780820380516001836020036101000a031916815260200191505b509b50505050505050505050505060405180910390a150505050565b6004602052806000526040600020600091509050806000015490806001018054600181600116156101000203166002900480601f0160208091040260200160405190810160405280929190818152602001828054600181600116156101000203166002900480156116cf5780601f106116a4576101008083540402835291602001916116cf565b820191906000526020600020905b8154815290600101906020018083116116b257829003601f168201915b505050505090806002015490806003018054600181600116156101000203166002900480601f0160208091040260200160405190810160405280929190818152602001828054600181600116156101000203166002900480156117735780601f1061174857610100808354040283529160200191611773565b820191906000526020600020905b81548152906001019060200180831161175657829003601f168201915b505050505090806004018054600181600116156101000203166002900480601f0160208091040260200160405190810160405280929190818152602001828054600181600116156101000203166002900480156118115780601f106117e657610100808354040283529160200191611811565b820191906000526020600020905b8154815290600101906020018083116117f457829003601f168201915b5050505050908060050160009054906101000a900473ffffffffffffffffffffffffffffffffffffffff16908060060160009054906101000a900473ffffffffffffffffffffffffffffffffffffffff16908060060160149054906101000a900460ff16905088565b8060039080519060200190611890929190612b6e565b50611899612a3d565b600460008481526020019081526020016000206040518061010001604052908160008201548152602001600182018054600181600116156101000203166002900480601f01602080910402602001604051908101604052809291908181526020018280546001816001161561010002031660029004801561195b5780601f106119305761010080835404028352916020019161195b565b820191906000526020600020905b81548152906001019060200180831161193e57829003601f168201915b5050505050815260200160028201548152602001600382018054600181600116156101000203166002900480601f016020809104026020016040519081016040528092919081815260200182805460018160011615610100020316600290048015611a075780601f106119dc57610100808354040283529160200191611a07565b820191906000526020600020905b8154815290600101906020018083116119ea57829003601f168201915b50505050508152602001600482018054600181600116156101000203166002900480601f016020809104026020016040519081016040528092919081815260200182805460018160011615610100020316600290048015611aa95780601f10611a7e57610100808354040283529160200191611aa9565b820191906000526020600020905b815481529060010190602001808311611a8c57829003601f168201915b505050505081526020016005820160009054906101000a900473ffffffffffffffffffffffffffffffffffffffff1673ffffffffffffffffffffffffffffffffffffffff1673ffffffffffffffffffffffffffffffffffffffff1681526020016006820160009054906101000a900473ffffffffffffffffffffffffffffffffffffffff1673ffffffffffffffffffffffffffffffffffffffff1673ffffffffffffffffffffffffffffffffffffffff1681526020016006820160149054906101000a900460ff161515151581525050905060008160000151118015611b955750600154816000015111155b611c07576040517f08c379a000000000000000000000000000000000000000000000000000000000815260040180806020018281038252600f8152602001807f50726f6475637420696e76616c6964000000000000000000000000000000000081525060200191505060405180910390fd5b8060e00151611c7e576040517f08c379a00000000000000000000000000000000000000000000000000000000081526004018080602001828103825260198152602001807f486f75736520686173206e6f74206265656e2072656e7465640000000000000081525060200191505060405180910390fd5b60008160a0015190503373ffffffffffffffffffffffffffffffffffffffff168173ffffffffffffffffffffffffffffffffffffffff161415611d29576040517f08c379a00000000000000000000000000000000000000000000000000000000081526004018080602001828103825260198152602001807f42757965722063616e6e6f7420626520746865206f776e65720000000000000081525060200191505060405180910390fd5b60008260c001519050600260008154809291906001019190505550604051806080016040528060025481526020018681526020018581526020018273ffffffffffffffffffffffffffffffffffffffff1681525060056000600254815260200190815260200160002060008201518160000155602082015181600101556040820151816002019080519060200190611dc2929190612ab0565b5060608201518160030160006101000a81548173ffffffffffffffffffffffffffffffffffffffff021916908373ffffffffffffffffffffffffffffffffffffffff1602179055509050505050505050565b6005602052806000526040600020600091509050806000015490806001015490806002018054600181600116156101000203166002900480601f016020809104026020016040519081016040528092919081815260200182805460018160011615610100020316600290048015611ecc5780601f10611ea157610100808354040283529160200191611ecc565b820191906000526020600020905b815481529060010190602001808311611eaf57829003601f168201915b5050505050908060030160009054906101000a900473ffffffffffffffffffffffffffffffffffffffff16905084565b6000611f06612a3d565b600460008581526020019081526020016000206040518061010001604052908160008201548152602001600182018054600181600116156101000203166002900480601f016020809104026020016040519081016040528092919081815260200182805460018160011615610100020316600290048015611fc85780601f10611f9d57610100808354040283529160200191611fc8565b820191906000526020600020905b815481529060010190602001808311611fab57829003601f168201915b5050505050815260200160028201548152602001600382018054600181600116156101000203166002900480601f0160208091040260200160405190810160405280929190818152602001828054600181600116156101000203166002900480156120745780601f1061204957610100808354040283529160200191612074565b820191906000526020600020905b81548152906001019060200180831161205757829003601f168201915b50505050508152602001600482018054600181600116156101000203166002900480601f0160208091040260200160405190810160405280929190818152602001828054600181600116156101000203166002900480156121165780601f106120eb57610100808354040283529160200191612116565b820191906000526020600020905b8154815290600101906020018083116120f957829003601f168201915b505050505081526020016005820160009054906101000a900473ffffffffffffffffffffffffffffffffffffffff1673ffffffffffffffffffffffffffffffffffffffff1673ffffffffffffffffffffffffffffffffffffffff1681526020016006820160009054906101000a900473ffffffffffffffffffffffffffffffffffffffff1673ffffffffffffffffffffffffffffffffffffffff1673ffffffffffffffffffffffffffffffffffffffff1681526020016006820160149054906101000a900460ff16151515158152505090508060e001511561223e578060c0015173ffffffffffffffffffffffffffffffffffffffff168373ffffffffffffffffffffffffffffffffffffffff161415612234576001915050612244565b6000915050612244565b60009150505b92915050565b60038054600181600116156101000203166002900480601f0160208091040260200160405190810160405280929190818152602001828054600181600116156101000203166002900480156122e05780601f106122b5576101008083540402835291602001916122e0565b820191906000526020600020905b8154815290600101906020018083116122c357829003601f168201915b505050505081565b6122f0612a3d565b600460008381526020019081526020016000206040518061010001604052908160008201548152602001600182018054600181600116156101000203166002900480601f0160208091040260200160405190810160405280929190818152602001828054600181600116156101000203166002900480156123b25780601f10612387576101008083540402835291602001916123b2565b820191906000526020600020905b81548152906001019060200180831161239557829003601f168201915b5050505050815260200160028201548152602001600382018054600181600116156101000203166002900480601f01602080910402602001604051908101604052809291908181526020018280546001816001161561010002031660029004801561245e5780601f106124335761010080835404028352916020019161245e565b820191906000526020600020905b81548152906001019060200180831161244157829003601f168201915b50505050508152602001600482018054600181600116156101000203166002900480601f0160208091040260200160405190810160405280929190818152602001828054600181600116156101000203166002900480156125005780601f106124d557610100808354040283529160200191612500565b820191906000526020600020905b8154815290600101906020018083116124e357829003601f168201915b505050505081526020016005820160009054906101000a900473ffffffffffffffffffffffffffffffffffffffff1673ffffffffffffffffffffffffffffffffffffffff1673ffffffffffffffffffffffffffffffffffffffff1681526020016006820160009054906101000a900473ffffffffffffffffffffffffffffffffffffffff1673ffffffffffffffffffffffffffffffffffffffff1673ffffffffffffffffffffffffffffffffffffffff1681526020016006820160149054906101000a900460ff161515151581525050905060008160a001519050600082600001511180156125f55750600154826000015111155b6125fe57600080fd5b816040015134101561260f57600080fd5b8160e001511561261e57600080fd5b3373ffffffffffffffffffffffffffffffffffffffff168173ffffffffffffffffffffffffffffffffffffffff16141561265757600080fd5b338260c0019073ffffffffffffffffffffffffffffffffffffffff16908173ffffffffffffffffffffffffffffffffffffffff168152505060018260e001901515908115158152505081600460008581526020019081526020016000206000820151816000015560208201518160010190805190602001906126da929190612ab0565b50604082015181600201556060820151816003019080519060200190612701929190612ab0565b50608082015181600401908051906020019061271e929190612ab0565b5060a08201518160050160006101000a81548173ffffffffffffffffffffffffffffffffffffffff021916908373ffffffffffffffffffffffffffffffffffffffff16021790555060c08201518160060160006101000a81548173ffffffffffffffffffffffffffffffffffffffff021916908373ffffffffffffffffffffffffffffffffffffffff16021790555060e08201518160060160146101000a81548160ff0219169083151502179055509050508073ffffffffffffffffffffffffffffffffffffffff166108fc349081150290604051600060405180830381858888f19350505050158015612816573d6000803e3d6000fd5b507f2a72e508d49e44256250486bc3582a49c505eba5e6cc0a62fe925511c94d2f3d60015483602001518460400151856060015186608001518760a001518860c001516001604051808981526020018060200188815260200180602001806020018773ffffffffffffffffffffffffffffffffffffffff1673ffffffffffffffffffffffffffffffffffffffff1681526020018673ffffffffffffffffffffffffffffffffffffffff1673ffffffffffffffffffffffffffffffffffffffff1681526020018515151515815260200184810384528b818151815260200191508051906020019080838360005b8381101561291d578082015181840152602081019050612902565b50505050905090810190601f16801561294a5780820380516001836020036101000a031916815260200191505b50848103835289818151815260200191508051906020019080838360005b83811015612983578082015181840152602081019050612968565b50505050905090810190601f1680156129b05780820380516001836020036101000a031916815260200191505b50848103825288818151815260200191508051906020019080838360005b838110156129e95780820151818401526020810190506129ce565b50505050905090810190601f168015612a165780820380516001836020036101000a031916815260200191505b509b50505050505050505050505060405180910390a1505050565b60025481565b60015481565b6040518061010001604052806000815260200160608152602001600081526020016060815260200160608152602001600073ffffffffffffffffffffffffffffffffffffffff168152602001600073ffffffffffffffffffffffffffffffffffffffff1681526020016000151581525090565b828054600181600116156101000203166002900490600052602060002090601f016020900481019282601f10612af157805160ff1916838001178555612b1f565b82800160010185558215612b1f579182015b82811115612b1e578251825591602001919060010190612b03565b5b509050612b2c9190612bee565b5090565b6040518060800160405280600081526020016000815260200160608152602001600073ffffffffffffffffffffffffffffffffffffffff1681525090565b828054600181600116156101000203166002900490600052602060002090601f016020900481019282601f10612baf57805160ff1916838001178555612bdd565b82800160010185558215612bdd579182015b82811115612bdc578251825591602001919060010190612bc1565b5b509050612bea9190612bee565b5090565b612c1091905b80821115612c0c576000816000905550600101612bf4565b5090565b9056fea265627a7a72315820e041b617f1a4cd5dda7198d39dd276b46dc869b4bd64d3cd073c01da2391976d64736f6c63430005100032",
  "source": "pragma solidity ^0.5.0;\n\ncontract Marketplace {\n    string public name;\n    uint public productCount = 0;\n    uint public ipfsCount = 0;\n    string public ipfsHash;\n   // uint public index = 0;\n    mapping(uint => House) public houses;\n    mapping(uint => Ipfs) public ipfs;\n\n    struct House {\n        uint id;\n        string name;\n        uint price;\n        string bhk;\n        string location;\n        address payable owner;\n        address payable rentee;\n        bool purchased;\n    }\n    struct Ipfs {\n        uint ipfs_id;\n        uint house_id;\n        string IPFS_Hash;\n        address payable rentee;\n    }\n\n    event HouseCreated(\n        uint id,\n        string name,\n        uint price,\n        string bhk,\n        string location,\n        address payable owner,\n        address payable rentee,\n        bool purchased\n    );\n\n    event HouseRented(\n        uint id,\n        string name,\n        uint price,\n        string bhk,\n        string location,\n        address payable owner,\n        address payable rentee,\n        bool purchased\n    );\n\n    event HouseReturned(\n        uint id,\n        string name,\n        uint price,\n        string bhk,\n        string location,\n        address payable owner,\n        address payable rentee,\n        bool purchased\n    );\n\n    constructor() public {\n        name = \"Mahanthesh Marketplace\";\n    }\n\n    function createHouse(string memory _name, uint _price, string memory _bhk, string memory _location) public {\n        //Require a valid name\n        require(bytes(_name).length > 0);\n         //Require a valid price\n        require(_price > 0);\n        //Make sure param are correct\n        //Increment product count\n        productCount ++;\n        //Create the product\n        houses[productCount] = House(productCount, _name, _price, _bhk, _location, msg.sender, address(0x0),false);\n        //Trigger event\n        emit HouseCreated(productCount, _name, _price, _bhk, _location, msg.sender, address(0x0),false);\n\n    }\n\n    function rentHouse(uint _id) public payable{\n        //Fetch the product\n        House memory _house = houses[_id];\n        //Fetch Owner\n        address payable _seller = _house.owner;\n        //Make sure the product is valid with valid id\n        require(_house.id > 0 && _house.id <= productCount);\n        //Require that there is enough ether\n        require(msg.value >= _house.price);\n        //Require that house has not been rented already\n        require(!_house.purchased);\n        //Require that the buyer is not the seller\n        require(_seller != msg.sender);\n        //Transfer ownership to rantee\n       // _house.owner = msg.sender;\n       _house.rentee = msg.sender;\n        //Mark as purchased\n        _house.purchased = true;\n        //Add the rentee address to allRentee Array\n       // _house.allRentee[index] = _house.rentee;\n        //update the product\n        houses[_id] = _house;\n        //Pay the seller by sending them ether\n        address(_seller).transfer(msg.value);\n        //Trigger Event\n       //  emit HouseRented(productCount, _house.name, _house.price, _house.bhk, _house.location, msg.sender,_house.rentee, true);\n       emit HouseRented(productCount, _house.name, _house.price, _house.bhk, _house.location, _house.owner, _house.rentee, true);\n    }\n\n    //allow house owner to mark house as returned.\n    function returnHouse(uint _id) public{\n         //Fetch the product\n        House memory _house = houses[_id];\n        require(_house.owner == msg.sender);\n        //Make House available again\n        _house.purchased = false;\n        //Remove Previous rentee\n        _house.rentee = address(0x0);\n        //update product\n        houses[_id] = _house;\n        //Trigger an Event\n        emit HouseReturned(productCount, _house.name, _house.price, _house.bhk, _house.location, _house.owner, _house.rentee, false);\n    }\n\n\n    function sendHash(uint _id,string memory x) public {\n        ipfsHash = x;\n        //Fetch the product\n        House memory _house = houses[_id];\n        //Make sure the product is valid with valid id\n        require(_house.id > 0 && _house.id <= productCount, \"Product invalid\");\n        //Require that house has  been rented\n        require(_house.purchased, \"House has not been rented\");\n        //Require that the buyer is not the seller\n        address payable _seller = _house.owner;\n        require(_seller != msg.sender, \"Buyer cannot be the owner\");\n        //Fetch the rentee\n        address payable rentee = _house.rentee;\n        //Increment ipfs count\n        ipfsCount ++;\n        //Fetch the IPFS struct\n        ipfs[ipfsCount] = Ipfs(ipfsCount,_id,x,rentee);\n    }\n\n    function getHash(uint _id) public view returns (string memory x) {\n        //Fetch ipfs value\n        for (uint i = 1; i<=ipfsCount; i++){\n             Ipfs memory _ipfs = ipfs[i];\n             if(_ipfs.house_id == _id){\n                  return _ipfs.IPFS_Hash;\n             }\n        }\n    }\n\n    function verifyQR(uint _id, address verifyRentee) public view returns (bool ){\n        //fetch House details\n        House memory _house = houses[_id];\n        //Verify the rentee\n        if(_house.purchased){\n            if(verifyRentee == _house.rentee){\n                //Verified\n                return true;\n            } else{\n                //Not Verified\n                return false;\n            }\n        }else {\n            //Not Verified\n            return false;\n        }\n    }\n\n\n\n}",
  "sourcePath": "/Users/macbook/Documents/blockchain_iot/marketplace/src/contracts/marketplace.sol",
  "compiler": {
    "name": "solc",
    "version": "0.5.16+commit.9c3226ce.Emscripten.clang"
  },
  "schemaVersion": "3.1.0",
  "updatedAt": "2020-06-19T13:50:00.723Z",
  "networkType": "ethereum",
  "devdoc": {
    "methods": {}
  },
  "userdoc": {
    "methods": {}
  }
}