{
  "contractName": "Marketplace",
  "abi": [
    {
      "constant": true,
      "inputs": [],
      "name": "name",
      "outputs": [
        {
          "name": "",
          "type": "string"
        }
      ],
      "payable": false,
      "stateMutability": "view",
      "type": "function",
      "signature": "0x06fdde03"
    },
    {
      "constant": true,
      "inputs": [
        {
          "name": "",
          "type": "uint256"
        }
      ],
      "name": "houses",
      "outputs": [
        {
          "name": "id",
          "type": "uint256"
        },
        {
          "name": "name",
          "type": "string"
        },
        {
          "name": "price",
          "type": "uint256"
        },
        {
          "name": "bhk",
          "type": "string"
        },
        {
          "name": "location",
          "type": "string"
        },
        {
          "name": "owner",
          "type": "address"
        },
        {
          "name": "rentee",
          "type": "address"
        },
        {
          "name": "purchased",
          "type": "bool"
        }
      ],
      "payable": false,
      "stateMutability": "view",
      "type": "function",
      "signature": "0xaeda852f"
    },
    {
      "constant": true,
      "inputs": [],
      "name": "productCount",
      "outputs": [
        {
          "name": "",
          "type": "uint256"
        }
      ],
      "payable": false,
      "stateMutability": "view",
      "type": "function",
      "signature": "0xe0f6ef87"
    },
    {
      "inputs": [],
      "payable": false,
      "stateMutability": "nonpayable",
      "type": "constructor",
      "signature": "constructor"
    },
    {
      "anonymous": false,
      "inputs": [
        {
          "indexed": false,
          "name": "id",
          "type": "uint256"
        },
        {
          "indexed": false,
          "name": "name",
          "type": "string"
        },
        {
          "indexed": false,
          "name": "price",
          "type": "uint256"
        },
        {
          "indexed": false,
          "name": "bhk",
          "type": "string"
        },
        {
          "indexed": false,
          "name": "location",
          "type": "string"
        },
        {
          "indexed": false,
          "name": "owner",
          "type": "address"
        },
        {
          "indexed": false,
          "name": "rentee",
          "type": "address"
        },
        {
          "indexed": false,
          "name": "purchased",
          "type": "bool"
        }
      ],
      "name": "HouseCreated",
      "type": "event",
      "signature": "0x5a7830f9919f46a3d816caf17fe511b17c2db9678b35709e1acdf158b812aa5d"
    },
    {
      "anonymous": false,
      "inputs": [
        {
          "indexed": false,
          "name": "id",
          "type": "uint256"
        },
        {
          "indexed": false,
          "name": "name",
          "type": "string"
        },
        {
          "indexed": false,
          "name": "price",
          "type": "uint256"
        },
        {
          "indexed": false,
          "name": "bhk",
          "type": "string"
        },
        {
          "indexed": false,
          "name": "location",
          "type": "string"
        },
        {
          "indexed": false,
          "name": "owner",
          "type": "address"
        },
        {
          "indexed": false,
          "name": "rentee",
          "type": "address"
        },
        {
          "indexed": false,
          "name": "purchased",
          "type": "bool"
        }
      ],
      "name": "HouseRented",
      "type": "event",
      "signature": "0x2a72e508d49e44256250486bc3582a49c505eba5e6cc0a62fe925511c94d2f3d"
    },
    {
      "anonymous": false,
      "inputs": [
        {
          "indexed": false,
          "name": "id",
          "type": "uint256"
        },
        {
          "indexed": false,
          "name": "name",
          "type": "string"
        },
        {
          "indexed": false,
          "name": "price",
          "type": "uint256"
        },
        {
          "indexed": false,
          "name": "bhk",
          "type": "string"
        },
        {
          "indexed": false,
          "name": "location",
          "type": "string"
        },
        {
          "indexed": false,
          "name": "owner",
          "type": "address"
        },
        {
          "indexed": false,
          "name": "rentee",
          "type": "address"
        },
        {
          "indexed": false,
          "name": "purchased",
          "type": "bool"
        }
      ],
      "name": "HouseReturned",
      "type": "event",
      "signature": "0x2a232a46bab722de3eed250ae6817f33b4ee20a4c2fb0c86ee5c6311e1f627a6"
    },
    {
      "constant": false,
      "inputs": [
        {
          "name": "_name",
          "type": "string"
        },
        {
          "name": "_price",
          "type": "uint256"
        },
        {
          "name": "_bhk",
          "type": "string"
        },
        {
          "name": "_location",
          "type": "string"
        }
      ],
      "name": "createHouse",
      "outputs": [],
      "payable": false,
      "stateMutability": "nonpayable",
      "type": "function",
      "signature": "0x926d031e"
    },
    {
      "constant": false,
      "inputs": [
        {
          "name": "_id",
          "type": "uint256"
        }
      ],
      "name": "rentHouse",
      "outputs": [],
      "payable": true,
      "stateMutability": "payable",
      "type": "function",
      "signature": "0xcc9a4b04"
    },
    {
      "constant": false,
      "inputs": [
        {
          "name": "_id",
          "type": "uint256"
        }
      ],
      "name": "returnHouse",
      "outputs": [],
      "payable": false,
      "stateMutability": "nonpayable",
      "type": "function",
      "signature": "0x4937860f"
    }
  ],
  "bytecode": "0x608060405260006001553480156200001657600080fd5b506040805190810160405280601681526020017f4d6168616e7468657368204d61726b6574706c6163650000000000000000000081525060009080519060200190620000649291906200006b565b506200011a565b828054600181600116156101000203166002900490600052602060002090601f016020900481019282601f10620000ae57805160ff1916838001178555620000df565b82800160010185558215620000df579182015b82811115620000de578251825591602001919060010190620000c1565b5b509050620000ee9190620000f2565b5090565b6200011791905b8082111562000113576000816000905550600101620000f9565b5090565b90565b611bd2806200012a6000396000f3fe608060405260043610610078576000357c0100000000000000000000000000000000000000000000000000000000900463ffffffff16806306fdde031461007d5780634937860f1461010d578063926d031e14610148578063aeda852f14610348578063cc9a4b0414610553578063e0f6ef8714610581575b600080fd5b34801561008957600080fd5b506100926105ac565b6040518080602001828103825283818151815260200191508051906020019080838360005b838110156100d25780820151818401526020810190506100b7565b50505050905090810190601f1680156100ff5780820380516001836020036101000a031916815260200191505b509250505060405180910390f35b34801561011957600080fd5b506101466004803603602081101561013057600080fd5b810190808035906020019092919050505061064a565b005b34801561015457600080fd5b506103466004803603608081101561016b57600080fd5b810190808035906020019064010000000081111561018857600080fd5b82018360208201111561019a57600080fd5b803590602001918460018302840111640100000000831117156101bc57600080fd5b91908080601f016020809104026020016040519081016040528093929190818152602001838380828437600081840152601f19601f820116905080830192505050505050509192919290803590602001909291908035906020019064010000000081111561022957600080fd5b82018360208201111561023b57600080fd5b8035906020019184600183028401116401000000008311171561025d57600080fd5b91908080601f016020809104026020016040519081016040528093929190818152602001838380828437600081840152601f19601f820116905080830192505050505050509192919290803590602001906401000000008111156102c057600080fd5b8201836020820111156102d257600080fd5b803590602001918460018302840111640100000000831117156102f457600080fd5b91908080601f016020809104026020016040519081016040528093929190818152602001838380828437600081840152601f19601f820116905080830192505050505050509192919290505050610d06565b005b34801561035457600080fd5b506103816004803603602081101561036b57600080fd5b81019080803590602001909291905050506110d8565b604051808981526020018060200188815260200180602001806020018773ffffffffffffffffffffffffffffffffffffffff1673ffffffffffffffffffffffffffffffffffffffff1681526020018673ffffffffffffffffffffffffffffffffffffffff1673ffffffffffffffffffffffffffffffffffffffff1681526020018515151515815260200184810384528b818151815260200191508051906020019080838360005b83811015610443578082015181840152602081019050610428565b50505050905090810190601f1680156104705780820380516001836020036101000a031916815260200191505b50848103835289818151815260200191508051906020019080838360005b838110156104a957808201518184015260208101905061048e565b50505050905090810190601f1680156104d65780820380516001836020036101000a031916815260200191505b50848103825288818151815260200191508051906020019080838360005b8381101561050f5780820151818401526020810190506104f4565b50505050905090810190601f16801561053c5780820380516001836020036101000a031916815260200191505b509b50505050505050505050505060405180910390f35b61057f6004803603602081101561056957600080fd5b8101908080359060200190929190505050611335565b005b34801561058d57600080fd5b50610596611a87565b6040518082815260200191505060405180910390f35b60008054600181600116156101000203166002900480601f0160208091040260200160405190810160405280929190818152602001828054600181600116156101000203166002900480156106425780601f1061061757610100808354040283529160200191610642565b820191906000526020600020905b81548152906001019060200180831161062557829003601f168201915b505050505081565b610652611a8d565b60026000838152602001908152602001600020610100604051908101604052908160008201548152602001600182018054600181600116156101000203166002900480601f0160208091040260200160405190810160405280929190818152602001828054600181600116156101000203166002900480156107155780601f106106ea57610100808354040283529160200191610715565b820191906000526020600020905b8154815290600101906020018083116106f857829003601f168201915b5050505050815260200160028201548152602001600382018054600181600116156101000203166002900480601f0160208091040260200160405190810160405280929190818152602001828054600181600116156101000203166002900480156107c15780601f10610796576101008083540402835291602001916107c1565b820191906000526020600020905b8154815290600101906020018083116107a457829003601f168201915b50505050508152602001600482018054600181600116156101000203166002900480601f0160208091040260200160405190810160405280929190818152602001828054600181600116156101000203166002900480156108635780601f1061083857610100808354040283529160200191610863565b820191906000526020600020905b81548152906001019060200180831161084657829003601f168201915b505050505081526020016005820160009054906101000a900473ffffffffffffffffffffffffffffffffffffffff1673ffffffffffffffffffffffffffffffffffffffff1673ffffffffffffffffffffffffffffffffffffffff1681526020016006820160009054906101000a900473ffffffffffffffffffffffffffffffffffffffff1673ffffffffffffffffffffffffffffffffffffffff1673ffffffffffffffffffffffffffffffffffffffff1681526020016006820160149054906101000a900460ff16151515158152505090503373ffffffffffffffffffffffffffffffffffffffff168160a0015173ffffffffffffffffffffffffffffffffffffffff1614151561097357600080fd5b60008160e001901515908115158152505060008160c0019073ffffffffffffffffffffffffffffffffffffffff16908173ffffffffffffffffffffffffffffffffffffffff168152505080600260008481526020019081526020016000206000820151816000015560208201518160010190805190602001906109f7929190611b01565b50604082015181600201556060820151816003019080519060200190610a1e929190611b01565b506080820151816004019080519060200190610a3b929190611b01565b5060a08201518160050160006101000a81548173ffffffffffffffffffffffffffffffffffffffff021916908373ffffffffffffffffffffffffffffffffffffffff16021790555060c08201518160060160006101000a81548173ffffffffffffffffffffffffffffffffffffffff021916908373ffffffffffffffffffffffffffffffffffffffff16021790555060e08201518160060160146101000a81548160ff0219169083151502179055509050507f2a232a46bab722de3eed250ae6817f33b4ee20a4c2fb0c86ee5c6311e1f627a660015482602001518360400151846060015185608001518660a001518760c001516000604051808981526020018060200188815260200180602001806020018773ffffffffffffffffffffffffffffffffffffffff1673ffffffffffffffffffffffffffffffffffffffff1681526020018673ffffffffffffffffffffffffffffffffffffffff1673ffffffffffffffffffffffffffffffffffffffff1681526020018515151515815260200184810384528b818151815260200191508051906020019080838360005b83811015610bf3578082015181840152602081019050610bd8565b50505050905090810190601f168015610c205780820380516001836020036101000a031916815260200191505b50848103835289818151815260200191508051906020019080838360005b83811015610c59578082015181840152602081019050610c3e565b50505050905090810190601f168015610c865780820380516001836020036101000a031916815260200191505b50848103825288818151815260200191508051906020019080838360005b83811015610cbf578082015181840152602081019050610ca4565b50505050905090810190601f168015610cec5780820380516001836020036101000a031916815260200191505b509b50505050505050505050505060405180910390a15050565b60008451111515610d1657600080fd5b600083111515610d2557600080fd5b6001600081548092919060010191905055506101006040519081016040528060015481526020018581526020018481526020018381526020018281526020013373ffffffffffffffffffffffffffffffffffffffff168152602001600073ffffffffffffffffffffffffffffffffffffffff16815260200160001515815250600260006001548152602001908152602001600020600082015181600001556020820151816001019080519060200190610ddf929190611b01565b50604082015181600201556060820151816003019080519060200190610e06929190611b01565b506080820151816004019080519060200190610e23929190611b01565b5060a08201518160050160006101000a81548173ffffffffffffffffffffffffffffffffffffffff021916908373ffffffffffffffffffffffffffffffffffffffff16021790555060c08201518160060160006101000a81548173ffffffffffffffffffffffffffffffffffffffff021916908373ffffffffffffffffffffffffffffffffffffffff16021790555060e08201518160060160146101000a81548160ff0219169083151502179055509050507f5a7830f9919f46a3d816caf17fe511b17c2db9678b35709e1acdf158b812aa5d6001548585858533600080604051808981526020018060200188815260200180602001806020018773ffffffffffffffffffffffffffffffffffffffff1673ffffffffffffffffffffffffffffffffffffffff1681526020018673ffffffffffffffffffffffffffffffffffffffff1673ffffffffffffffffffffffffffffffffffffffff1681526020018515151515815260200184810384528b818151815260200191508051906020019080838360005b83811015610fc3578082015181840152602081019050610fa8565b50505050905090810190601f168015610ff05780820380516001836020036101000a031916815260200191505b50848103835289818151815260200191508051906020019080838360005b8381101561102957808201518184015260208101905061100e565b50505050905090810190601f1680156110565780820380516001836020036101000a031916815260200191505b50848103825288818151815260200191508051906020019080838360005b8381101561108f578082015181840152602081019050611074565b50505050905090810190601f1680156110bc5780820380516001836020036101000a031916815260200191505b509b50505050505050505050505060405180910390a150505050565b6002602052806000526040600020600091509050806000015490806001018054600181600116156101000203166002900480601f01602080910402602001604051908101604052809291908181526020018280546001816001161561010002031660029004801561118a5780601f1061115f5761010080835404028352916020019161118a565b820191906000526020600020905b81548152906001019060200180831161116d57829003601f168201915b505050505090806002015490806003018054600181600116156101000203166002900480601f01602080910402602001604051908101604052809291908181526020018280546001816001161561010002031660029004801561122e5780601f106112035761010080835404028352916020019161122e565b820191906000526020600020905b81548152906001019060200180831161121157829003601f168201915b505050505090806004018054600181600116156101000203166002900480601f0160208091040260200160405190810160405280929190818152602001828054600181600116156101000203166002900480156112cc5780601f106112a1576101008083540402835291602001916112cc565b820191906000526020600020905b8154815290600101906020018083116112af57829003601f168201915b5050505050908060050160009054906101000a900473ffffffffffffffffffffffffffffffffffffffff16908060060160009054906101000a900473ffffffffffffffffffffffffffffffffffffffff16908060060160149054906101000a900460ff16905088565b61133d611a8d565b60026000838152602001908152602001600020610100604051908101604052908160008201548152602001600182018054600181600116156101000203166002900480601f0160208091040260200160405190810160405280929190818152602001828054600181600116156101000203166002900480156114005780601f106113d557610100808354040283529160200191611400565b820191906000526020600020905b8154815290600101906020018083116113e357829003601f168201915b5050505050815260200160028201548152602001600382018054600181600116156101000203166002900480601f0160208091040260200160405190810160405280929190818152602001828054600181600116156101000203166002900480156114ac5780601f10611481576101008083540402835291602001916114ac565b820191906000526020600020905b81548152906001019060200180831161148f57829003601f168201915b50505050508152602001600482018054600181600116156101000203166002900480601f01602080910402602001604051908101604052809291908181526020018280546001816001161561010002031660029004801561154e5780601f106115235761010080835404028352916020019161154e565b820191906000526020600020905b81548152906001019060200180831161153157829003601f168201915b505050505081526020016005820160009054906101000a900473ffffffffffffffffffffffffffffffffffffffff1673ffffffffffffffffffffffffffffffffffffffff1673ffffffffffffffffffffffffffffffffffffffff1681526020016006820160009054906101000a900473ffffffffffffffffffffffffffffffffffffffff1673ffffffffffffffffffffffffffffffffffffffff1673ffffffffffffffffffffffffffffffffffffffff1681526020016006820160149054906101000a900460ff161515151581525050905060008160a001519050600082600001511180156116435750600154826000015111155b151561164e57600080fd5b8160400151341015151561166157600080fd5b8160e0015115151561167257600080fd5b3373ffffffffffffffffffffffffffffffffffffffff168173ffffffffffffffffffffffffffffffffffffffff16141515156116ad57600080fd5b338260c0019073ffffffffffffffffffffffffffffffffffffffff16908173ffffffffffffffffffffffffffffffffffffffff168152505060018260e00190151590811515815250508160026000858152602001908152602001600020600082015181600001556020820151816001019080519060200190611730929190611b01565b50604082015181600201556060820151816003019080519060200190611757929190611b01565b506080820151816004019080519060200190611774929190611b01565b5060a08201518160050160006101000a81548173ffffffffffffffffffffffffffffffffffffffff021916908373ffffffffffffffffffffffffffffffffffffffff16021790555060c08201518160060160006101000a81548173ffffffffffffffffffffffffffffffffffffffff021916908373ffffffffffffffffffffffffffffffffffffffff16021790555060e08201518160060160146101000a81548160ff0219169083151502179055509050508073ffffffffffffffffffffffffffffffffffffffff166108fc349081150290604051600060405180830381858888f1935050505015801561186c573d6000803e3d6000fd5b507f2a72e508d49e44256250486bc3582a49c505eba5e6cc0a62fe925511c94d2f3d60015483602001518460400151856060015186608001518760a001518860c001516001604051808981526020018060200188815260200180602001806020018773ffffffffffffffffffffffffffffffffffffffff1673ffffffffffffffffffffffffffffffffffffffff1681526020018673ffffffffffffffffffffffffffffffffffffffff1673ffffffffffffffffffffffffffffffffffffffff1681526020018515151515815260200184810384528b818151815260200191508051906020019080838360005b83811015611973578082015181840152602081019050611958565b50505050905090810190601f1680156119a05780820380516001836020036101000a031916815260200191505b50848103835289818151815260200191508051906020019080838360005b838110156119d95780820151818401526020810190506119be565b50505050905090810190601f168015611a065780820380516001836020036101000a031916815260200191505b50848103825288818151815260200191508051906020019080838360005b83811015611a3f578082015181840152602081019050611a24565b50505050905090810190601f168015611a6c5780820380516001836020036101000a031916815260200191505b509b50505050505050505050505060405180910390a1505050565b60015481565b610100604051908101604052806000815260200160608152602001600081526020016060815260200160608152602001600073ffffffffffffffffffffffffffffffffffffffff168152602001600073ffffffffffffffffffffffffffffffffffffffff1681526020016000151581525090565b828054600181600116156101000203166002900490600052602060002090601f016020900481019282601f10611b4257805160ff1916838001178555611b70565b82800160010185558215611b70579182015b82811115611b6f578251825591602001919060010190611b54565b5b509050611b7d9190611b81565b5090565b611ba391905b80821115611b9f576000816000905550600101611b87565b5090565b9056fea165627a7a723058200b27f01f7b8dbb072ebbcfcc3ff614b587bd53305ac6cc7169b282565ede9bea0029",
  "source": "pragma solidity ^0.5.0;\n\ncontract Marketplace {\n    string public name;\n    uint public productCount = 0;\n    mapping(uint => House) public houses;\n\n    struct House {\n        uint id;\n        string name;\n        uint price;\n        string bhk;\n        string location;\n        address payable owner;\n        address payable rentee;\n        bool purchased;\n    }\n\n    event HouseCreated(\n        uint id,\n        string name,\n        uint price,\n        string bhk,\n        string location,\n        address payable owner,\n        address payable rentee,\n        bool purchased\n    );\n\n    event HouseRented(\n        uint id,\n        string name,\n        uint price,\n        string bhk,\n        string location,\n        address payable owner,\n        address payable rentee,\n        bool purchased\n    );\n\n    event HouseReturned(\n        uint id,\n        string name,\n        uint price,\n        string bhk,\n        string location,\n        address payable owner,\n        address payable rentee,\n        bool purchased\n    );\n\n    constructor() public {\n        name = \"Mahanthesh Marketplace\";\n    }\n\n    function createHouse(string memory _name, uint _price, string memory _bhk, string memory _location) public {\n        //Require a valid name\n        require(bytes(_name).length > 0);\n        require(_price > 0);\n\n        //Require a valid price \n\n        //Make sure param are correct\n        //Increment product count\n        productCount ++;\n        //Create the product\n        houses[productCount] = House(productCount, _name, _price, _bhk, _location, msg.sender, address(0x0),false);\n        //Trigger event\n        emit HouseCreated(productCount, _name, _price, _bhk, _location, msg.sender, address(0x0),false);\n\n    }\n\n    function rentHouse(uint _id) public payable{\n        //Fetch the product\n        House memory _house = houses[_id];\n        //Fetch Owner\n        address payable _seller = _house.owner;\n        //Make sure the product is valid with valid id\n        require(_house.id > 0 && _house.id <= productCount);\n        //Require that there is enough ether\n        require(msg.value >= _house.price);\n        //Require that house has not been rented already\n        require(!_house.purchased);\n        //Require that the buyer is not the seller\n        require(_seller != msg.sender);\n        //Transfer ownership to rantee\n       // _house.owner = msg.sender;\n       _house.rentee = msg.sender;\n        //Mark as purchased\n        _house.purchased = true;\n        //update the product\n        houses[_id] = _house;\n        //Pay the seller by sending them ether\n        address(_seller).transfer(msg.value);\n        //Trigger Event\n       //  emit HouseRented(productCount, _house.name, _house.price, _house.bhk, _house.location, msg.sender,_house.rentee, true);\n       emit HouseRented(productCount, _house.name, _house.price, _house.bhk, _house.location, _house.owner, _house.rentee, true);\n\n\n    }\n\n    //allow house owner to mark house as returned.\n    function returnHouse(uint _id) public{\n         //Fetch the product\n        House memory _house = houses[_id];\n        require(_house.owner == msg.sender);\n        //Make House available again\n        _house.purchased = false;\n        //Remove Previous rentee\n        _house.rentee = address(0x0);\n        //update product\n        houses[_id] = _house;\n        //Trigger an Event\n        emit HouseReturned(productCount, _house.name, _house.price, _house.bhk, _house.location, _house.owner, _house.rentee, false);\n    }\n\n}",
  "sourcePath": "/Users/macbook/Documents/blockchain_iot/marketplace/src/contracts/marketplace.sol",
  "compiler": {
    "name": "solc",
    "version": "0.5.0+commit.1d4f565a.Emscripten.clang"
  },
  "schemaVersion": "3.0.2",
  "updatedAt": "2020-03-24T21:04:16.303Z",
  "devdoc": {
    "methods": {}
  },
  "userdoc": {
    "methods": {}
  }
}