{
  "contractName": "Marketplace",
  "abi": [
    {
      "constant": true,
      "inputs": [],
      "name": "name",
      "outputs": [
        {
          "name": "",
          "type": "string"
        }
      ],
      "payable": false,
      "stateMutability": "view",
      "type": "function"
    },
    {
      "constant": true,
      "inputs": [
        {
          "name": "",
          "type": "uint256"
        }
      ],
      "name": "houses",
      "outputs": [
        {
          "name": "id",
          "type": "uint256"
        },
        {
          "name": "name",
          "type": "string"
        },
        {
          "name": "price",
          "type": "uint256"
        },
        {
          "name": "bhk",
          "type": "string"
        },
        {
          "name": "location",
          "type": "string"
        },
        {
          "name": "owner",
          "type": "address"
        },
        {
          "name": "rentee",
          "type": "address"
        },
        {
          "name": "purchased",
          "type": "bool"
        }
      ],
      "payable": false,
      "stateMutability": "view",
      "type": "function"
    },
    {
      "constant": true,
      "inputs": [],
      "name": "productCount",
      "outputs": [
        {
          "name": "",
          "type": "uint256"
        }
      ],
      "payable": false,
      "stateMutability": "view",
      "type": "function"
    },
    {
      "inputs": [],
      "payable": false,
      "stateMutability": "nonpayable",
      "type": "constructor"
    },
    {
      "anonymous": false,
      "inputs": [
        {
          "indexed": false,
          "name": "id",
          "type": "uint256"
        },
        {
          "indexed": false,
          "name": "name",
          "type": "string"
        },
        {
          "indexed": false,
          "name": "price",
          "type": "uint256"
        },
        {
          "indexed": false,
          "name": "bhk",
          "type": "string"
        },
        {
          "indexed": false,
          "name": "location",
          "type": "string"
        },
        {
          "indexed": false,
          "name": "owner",
          "type": "address"
        },
        {
          "indexed": false,
          "name": "rentee",
          "type": "address"
        },
        {
          "indexed": false,
          "name": "purchased",
          "type": "bool"
        }
      ],
      "name": "HouseCreated",
      "type": "event"
    },
    {
      "anonymous": false,
      "inputs": [
        {
          "indexed": false,
          "name": "id",
          "type": "uint256"
        },
        {
          "indexed": false,
          "name": "name",
          "type": "string"
        },
        {
          "indexed": false,
          "name": "price",
          "type": "uint256"
        },
        {
          "indexed": false,
          "name": "bhk",
          "type": "string"
        },
        {
          "indexed": false,
          "name": "location",
          "type": "string"
        },
        {
          "indexed": false,
          "name": "owner",
          "type": "address"
        },
        {
          "indexed": false,
          "name": "rentee",
          "type": "address"
        },
        {
          "indexed": false,
          "name": "purchased",
          "type": "bool"
        }
      ],
      "name": "HouseRented",
      "type": "event"
    },
    {
      "anonymous": false,
      "inputs": [
        {
          "indexed": false,
          "name": "id",
          "type": "uint256"
        },
        {
          "indexed": false,
          "name": "name",
          "type": "string"
        },
        {
          "indexed": false,
          "name": "price",
          "type": "uint256"
        },
        {
          "indexed": false,
          "name": "bhk",
          "type": "string"
        },
        {
          "indexed": false,
          "name": "location",
          "type": "string"
        },
        {
          "indexed": false,
          "name": "owner",
          "type": "address"
        },
        {
          "indexed": false,
          "name": "rentee",
          "type": "address"
        },
        {
          "indexed": false,
          "name": "purchased",
          "type": "bool"
        }
      ],
      "name": "HouseReturned",
      "type": "event"
    },
    {
      "constant": false,
      "inputs": [
        {
          "name": "_name",
          "type": "string"
        },
        {
          "name": "_price",
          "type": "uint256"
        },
        {
          "name": "_bhk",
          "type": "string"
        },
        {
          "name": "_location",
          "type": "string"
        }
      ],
      "name": "createHouse",
      "outputs": [],
      "payable": false,
      "stateMutability": "nonpayable",
      "type": "function"
    },
    {
      "constant": false,
      "inputs": [
        {
          "name": "_id",
          "type": "uint256"
        }
      ],
      "name": "rentHouse",
      "outputs": [],
      "payable": true,
      "stateMutability": "payable",
      "type": "function"
    },
    {
      "constant": false,
      "inputs": [
        {
          "name": "_id",
          "type": "uint256"
        }
      ],
      "name": "returnHouse",
      "outputs": [],
      "payable": false,
      "stateMutability": "nonpayable",
      "type": "function"
    },
    {
      "constant": false,
      "inputs": [
        {
          "name": "x",
          "type": "string"
        }
      ],
      "name": "sendHash",
      "outputs": [],
      "payable": false,
      "stateMutability": "nonpayable",
      "type": "function"
    },
    {
      "constant": true,
      "inputs": [],
      "name": "getHash",
      "outputs": [
        {
          "name": "x",
          "type": "string"
        }
      ],
      "payable": false,
      "stateMutability": "view",
      "type": "function"
    }
  ],
  "bytecode": "0x608060405260006001553480156200001657600080fd5b506040805190810160405280601681526020017f4d6168616e7468657368204d61726b6574706c6163650000000000000000000081525060009080519060200190620000649291906200006b565b506200011a565b828054600181600116156101000203166002900490600052602060002090601f016020900481019282601f10620000ae57805160ff1916838001178555620000df565b82800160010185558215620000df579182015b82811115620000de578251825591602001919060010190620000c1565b5b509050620000ee9190620000f2565b5090565b6200011791905b8082111562000113576000816000905550600101620000f9565b5090565b90565b611e7c806200012a6000396000f3fe60806040526004361061008e576000357c0100000000000000000000000000000000000000000000000000000000900463ffffffff16806306fdde03146100935780634937860f14610123578063926d031e1461015e578063aeda852f1461035e578063cc9a4b0414610569578063d13319c414610597578063dfb2993514610627578063e0f6ef87146106ef575b600080fd5b34801561009f57600080fd5b506100a861071a565b6040518080602001828103825283818151815260200191508051906020019080838360005b838110156100e85780820151818401526020810190506100cd565b50505050905090810190601f1680156101155780820380516001836020036101000a031916815260200191505b509250505060405180910390f35b34801561012f57600080fd5b5061015c6004803603602081101561014657600080fd5b81019080803590602001909291905050506107b8565b005b34801561016a57600080fd5b5061035c6004803603608081101561018157600080fd5b810190808035906020019064010000000081111561019e57600080fd5b8201836020820111156101b057600080fd5b803590602001918460018302840111640100000000831117156101d257600080fd5b91908080601f016020809104026020016040519081016040528093929190818152602001838380828437600081840152601f19601f820116905080830192505050505050509192919290803590602001909291908035906020019064010000000081111561023f57600080fd5b82018360208201111561025157600080fd5b8035906020019184600183028401116401000000008311171561027357600080fd5b91908080601f016020809104026020016040519081016040528093929190818152602001838380828437600081840152601f19601f820116905080830192505050505050509192919290803590602001906401000000008111156102d657600080fd5b8201836020820111156102e857600080fd5b8035906020019184600183028401116401000000008311171561030a57600080fd5b91908080601f016020809104026020016040519081016040528093929190818152602001838380828437600081840152601f19601f820116905080830192505050505050509192919290505050610e74565b005b34801561036a57600080fd5b506103976004803603602081101561038157600080fd5b8101908080359060200190929190505050611246565b604051808981526020018060200188815260200180602001806020018773ffffffffffffffffffffffffffffffffffffffff1673ffffffffffffffffffffffffffffffffffffffff1681526020018673ffffffffffffffffffffffffffffffffffffffff1673ffffffffffffffffffffffffffffffffffffffff1681526020018515151515815260200184810384528b818151815260200191508051906020019080838360005b8381101561045957808201518184015260208101905061043e565b50505050905090810190601f1680156104865780820380516001836020036101000a031916815260200191505b50848103835289818151815260200191508051906020019080838360005b838110156104bf5780820151818401526020810190506104a4565b50505050905090810190601f1680156104ec5780820380516001836020036101000a031916815260200191505b50848103825288818151815260200191508051906020019080838360005b8381101561052557808201518184015260208101905061050a565b50505050905090810190601f1680156105525780820380516001836020036101000a031916815260200191505b509b50505050505050505050505060405180910390f35b6105956004803603602081101561057f57600080fd5b81019080803590602001909291905050506114a3565b005b3480156105a357600080fd5b506105ac611bf5565b6040518080602001828103825283818151815260200191508051906020019080838360005b838110156105ec5780820151818401526020810190506105d1565b50505050905090810190601f1680156106195780820380516001836020036101000a031916815260200191505b509250505060405180910390f35b34801561063357600080fd5b506106ed6004803603602081101561064a57600080fd5b810190808035906020019064010000000081111561066757600080fd5b82018360208201111561067957600080fd5b8035906020019184600183028401116401000000008311171561069b57600080fd5b91908080601f016020809104026020016040519081016040528093929190818152602001838380828437600081840152601f19601f820116905080830192505050505050509192919290505050611c97565b005b3480156106fb57600080fd5b50610704611cb1565b6040518082815260200191505060405180910390f35b60008054600181600116156101000203166002900480601f0160208091040260200160405190810160405280929190818152602001828054600181600116156101000203166002900480156107b05780601f10610785576101008083540402835291602001916107b0565b820191906000526020600020905b81548152906001019060200180831161079357829003601f168201915b505050505081565b6107c0611cb7565b60036000838152602001908152602001600020610100604051908101604052908160008201548152602001600182018054600181600116156101000203166002900480601f0160208091040260200160405190810160405280929190818152602001828054600181600116156101000203166002900480156108835780601f1061085857610100808354040283529160200191610883565b820191906000526020600020905b81548152906001019060200180831161086657829003601f168201915b5050505050815260200160028201548152602001600382018054600181600116156101000203166002900480601f01602080910402602001604051908101604052809291908181526020018280546001816001161561010002031660029004801561092f5780601f106109045761010080835404028352916020019161092f565b820191906000526020600020905b81548152906001019060200180831161091257829003601f168201915b50505050508152602001600482018054600181600116156101000203166002900480601f0160208091040260200160405190810160405280929190818152602001828054600181600116156101000203166002900480156109d15780601f106109a6576101008083540402835291602001916109d1565b820191906000526020600020905b8154815290600101906020018083116109b457829003601f168201915b505050505081526020016005820160009054906101000a900473ffffffffffffffffffffffffffffffffffffffff1673ffffffffffffffffffffffffffffffffffffffff1673ffffffffffffffffffffffffffffffffffffffff1681526020016006820160009054906101000a900473ffffffffffffffffffffffffffffffffffffffff1673ffffffffffffffffffffffffffffffffffffffff1673ffffffffffffffffffffffffffffffffffffffff1681526020016006820160149054906101000a900460ff16151515158152505090503373ffffffffffffffffffffffffffffffffffffffff168160a0015173ffffffffffffffffffffffffffffffffffffffff16141515610ae157600080fd5b60008160e001901515908115158152505060008160c0019073ffffffffffffffffffffffffffffffffffffffff16908173ffffffffffffffffffffffffffffffffffffffff16815250508060036000848152602001908152602001600020600082015181600001556020820151816001019080519060200190610b65929190611d2b565b50604082015181600201556060820151816003019080519060200190610b8c929190611d2b565b506080820151816004019080519060200190610ba9929190611d2b565b5060a08201518160050160006101000a81548173ffffffffffffffffffffffffffffffffffffffff021916908373ffffffffffffffffffffffffffffffffffffffff16021790555060c08201518160060160006101000a81548173ffffffffffffffffffffffffffffffffffffffff021916908373ffffffffffffffffffffffffffffffffffffffff16021790555060e08201518160060160146101000a81548160ff0219169083151502179055509050507f2a232a46bab722de3eed250ae6817f33b4ee20a4c2fb0c86ee5c6311e1f627a660015482602001518360400151846060015185608001518660a001518760c001516000604051808981526020018060200188815260200180602001806020018773ffffffffffffffffffffffffffffffffffffffff1673ffffffffffffffffffffffffffffffffffffffff1681526020018673ffffffffffffffffffffffffffffffffffffffff1673ffffffffffffffffffffffffffffffffffffffff1681526020018515151515815260200184810384528b818151815260200191508051906020019080838360005b83811015610d61578082015181840152602081019050610d46565b50505050905090810190601f168015610d8e5780820380516001836020036101000a031916815260200191505b50848103835289818151815260200191508051906020019080838360005b83811015610dc7578082015181840152602081019050610dac565b50505050905090810190601f168015610df45780820380516001836020036101000a031916815260200191505b50848103825288818151815260200191508051906020019080838360005b83811015610e2d578082015181840152602081019050610e12565b50505050905090810190601f168015610e5a5780820380516001836020036101000a031916815260200191505b509b50505050505050505050505060405180910390a15050565b60008451111515610e8457600080fd5b600083111515610e9357600080fd5b6001600081548092919060010191905055506101006040519081016040528060015481526020018581526020018481526020018381526020018281526020013373ffffffffffffffffffffffffffffffffffffffff168152602001600073ffffffffffffffffffffffffffffffffffffffff16815260200160001515815250600360006001548152602001908152602001600020600082015181600001556020820151816001019080519060200190610f4d929190611d2b565b50604082015181600201556060820151816003019080519060200190610f74929190611d2b565b506080820151816004019080519060200190610f91929190611d2b565b5060a08201518160050160006101000a81548173ffffffffffffffffffffffffffffffffffffffff021916908373ffffffffffffffffffffffffffffffffffffffff16021790555060c08201518160060160006101000a81548173ffffffffffffffffffffffffffffffffffffffff021916908373ffffffffffffffffffffffffffffffffffffffff16021790555060e08201518160060160146101000a81548160ff0219169083151502179055509050507f5a7830f9919f46a3d816caf17fe511b17c2db9678b35709e1acdf158b812aa5d6001548585858533600080604051808981526020018060200188815260200180602001806020018773ffffffffffffffffffffffffffffffffffffffff1673ffffffffffffffffffffffffffffffffffffffff1681526020018673ffffffffffffffffffffffffffffffffffffffff1673ffffffffffffffffffffffffffffffffffffffff1681526020018515151515815260200184810384528b818151815260200191508051906020019080838360005b83811015611131578082015181840152602081019050611116565b50505050905090810190601f16801561115e5780820380516001836020036101000a031916815260200191505b50848103835289818151815260200191508051906020019080838360005b8381101561119757808201518184015260208101905061117c565b50505050905090810190601f1680156111c45780820380516001836020036101000a031916815260200191505b50848103825288818151815260200191508051906020019080838360005b838110156111fd5780820151818401526020810190506111e2565b50505050905090810190601f16801561122a5780820380516001836020036101000a031916815260200191505b509b50505050505050505050505060405180910390a150505050565b6003602052806000526040600020600091509050806000015490806001018054600181600116156101000203166002900480601f0160208091040260200160405190810160405280929190818152602001828054600181600116156101000203166002900480156112f85780601f106112cd576101008083540402835291602001916112f8565b820191906000526020600020905b8154815290600101906020018083116112db57829003601f168201915b505050505090806002015490806003018054600181600116156101000203166002900480601f01602080910402602001604051908101604052809291908181526020018280546001816001161561010002031660029004801561139c5780601f106113715761010080835404028352916020019161139c565b820191906000526020600020905b81548152906001019060200180831161137f57829003601f168201915b505050505090806004018054600181600116156101000203166002900480601f01602080910402602001604051908101604052809291908181526020018280546001816001161561010002031660029004801561143a5780601f1061140f5761010080835404028352916020019161143a565b820191906000526020600020905b81548152906001019060200180831161141d57829003601f168201915b5050505050908060050160009054906101000a900473ffffffffffffffffffffffffffffffffffffffff16908060060160009054906101000a900473ffffffffffffffffffffffffffffffffffffffff16908060060160149054906101000a900460ff16905088565b6114ab611cb7565b60036000838152602001908152602001600020610100604051908101604052908160008201548152602001600182018054600181600116156101000203166002900480601f01602080910402602001604051908101604052809291908181526020018280546001816001161561010002031660029004801561156e5780601f106115435761010080835404028352916020019161156e565b820191906000526020600020905b81548152906001019060200180831161155157829003601f168201915b5050505050815260200160028201548152602001600382018054600181600116156101000203166002900480601f01602080910402602001604051908101604052809291908181526020018280546001816001161561010002031660029004801561161a5780601f106115ef5761010080835404028352916020019161161a565b820191906000526020600020905b8154815290600101906020018083116115fd57829003601f168201915b50505050508152602001600482018054600181600116156101000203166002900480601f0160208091040260200160405190810160405280929190818152602001828054600181600116156101000203166002900480156116bc5780601f10611691576101008083540402835291602001916116bc565b820191906000526020600020905b81548152906001019060200180831161169f57829003601f168201915b505050505081526020016005820160009054906101000a900473ffffffffffffffffffffffffffffffffffffffff1673ffffffffffffffffffffffffffffffffffffffff1673ffffffffffffffffffffffffffffffffffffffff1681526020016006820160009054906101000a900473ffffffffffffffffffffffffffffffffffffffff1673ffffffffffffffffffffffffffffffffffffffff1673ffffffffffffffffffffffffffffffffffffffff1681526020016006820160149054906101000a900460ff161515151581525050905060008160a001519050600082600001511180156117b15750600154826000015111155b15156117bc57600080fd5b816040015134101515156117cf57600080fd5b8160e001511515156117e057600080fd5b3373ffffffffffffffffffffffffffffffffffffffff168173ffffffffffffffffffffffffffffffffffffffff161415151561181b57600080fd5b338260c0019073ffffffffffffffffffffffffffffffffffffffff16908173ffffffffffffffffffffffffffffffffffffffff168152505060018260e0019015159081151581525050816003600085815260200190815260200160002060008201518160000155602082015181600101908051906020019061189e929190611d2b565b506040820151816002015560608201518160030190805190602001906118c5929190611d2b565b5060808201518160040190805190602001906118e2929190611d2b565b5060a08201518160050160006101000a81548173ffffffffffffffffffffffffffffffffffffffff021916908373ffffffffffffffffffffffffffffffffffffffff16021790555060c08201518160060160006101000a81548173ffffffffffffffffffffffffffffffffffffffff021916908373ffffffffffffffffffffffffffffffffffffffff16021790555060e08201518160060160146101000a81548160ff0219169083151502179055509050508073ffffffffffffffffffffffffffffffffffffffff166108fc349081150290604051600060405180830381858888f193505050501580156119da573d6000803e3d6000fd5b507f2a72e508d49e44256250486bc3582a49c505eba5e6cc0a62fe925511c94d2f3d60015483602001518460400151856060015186608001518760a001518860c001516001604051808981526020018060200188815260200180602001806020018773ffffffffffffffffffffffffffffffffffffffff1673ffffffffffffffffffffffffffffffffffffffff1681526020018673ffffffffffffffffffffffffffffffffffffffff1673ffffffffffffffffffffffffffffffffffffffff1681526020018515151515815260200184810384528b818151815260200191508051906020019080838360005b83811015611ae1578082015181840152602081019050611ac6565b50505050905090810190601f168015611b0e5780820380516001836020036101000a031916815260200191505b50848103835289818151815260200191508051906020019080838360005b83811015611b47578082015181840152602081019050611b2c565b50505050905090810190601f168015611b745780820380516001836020036101000a031916815260200191505b50848103825288818151815260200191508051906020019080838360005b83811015611bad578082015181840152602081019050611b92565b50505050905090810190601f168015611bda5780820380516001836020036101000a031916815260200191505b509b50505050505050505050505060405180910390a1505050565b606060028054600181600116156101000203166002900480601f016020809104026020016040519081016040528092919081815260200182805460018160011615610100020316600290048015611c8d5780601f10611c6257610100808354040283529160200191611c8d565b820191906000526020600020905b815481529060010190602001808311611c7057829003601f168201915b5050505050905090565b8060029080519060200190611cad929190611dab565b5050565b60015481565b610100604051908101604052806000815260200160608152602001600081526020016060815260200160608152602001600073ffffffffffffffffffffffffffffffffffffffff168152602001600073ffffffffffffffffffffffffffffffffffffffff1681526020016000151581525090565b828054600181600116156101000203166002900490600052602060002090601f016020900481019282601f10611d6c57805160ff1916838001178555611d9a565b82800160010185558215611d9a579182015b82811115611d99578251825591602001919060010190611d7e565b5b509050611da79190611e2b565b5090565b828054600181600116156101000203166002900490600052602060002090601f016020900481019282601f10611dec57805160ff1916838001178555611e1a565b82800160010185558215611e1a579182015b82811115611e19578251825591602001919060010190611dfe565b5b509050611e279190611e2b565b5090565b611e4d91905b80821115611e49576000816000905550600101611e31565b5090565b9056fea165627a7a72305820a7c83a86e3a8c4b8b024fa3a55a4e0c0ab26fd7c0f84149110d4e19f01ea5df30029",
  "source": "pragma solidity ^0.5.0;\n\ncontract Marketplace {\n    string public name;\n    uint public productCount = 0;\n    string ipfsHash;\n    mapping(uint => House) public houses;\n\n    struct House {\n        uint id;\n        string name;\n        uint price;\n        string bhk;\n        string location;\n        address payable owner;\n        address payable rentee;\n        bool purchased;\n    }\n\n    event HouseCreated(\n        uint id,\n        string name,\n        uint price,\n        string bhk,\n        string location,\n        address payable owner,\n        address payable rentee,\n        bool purchased\n    );\n\n    event HouseRented(\n        uint id,\n        string name,\n        uint price,\n        string bhk,\n        string location,\n        address payable owner,\n        address payable rentee,\n        bool purchased\n    );\n\n    event HouseReturned(\n        uint id,\n        string name,\n        uint price,\n        string bhk,\n        string location,\n        address payable owner,\n        address payable rentee,\n        bool purchased\n    );\n\n    constructor() public {\n        name = \"Mahanthesh Marketplace\";\n    }\n\n    function createHouse(string memory _name, uint _price, string memory _bhk, string memory _location) public {\n        //Require a valid name\n        require(bytes(_name).length > 0);\n        require(_price > 0);\n\n        //Require a valid price \n\n        //Make sure param are correct\n        //Increment product count\n        productCount ++;\n        //Create the product\n        houses[productCount] = House(productCount, _name, _price, _bhk, _location, msg.sender, address(0x0),false);\n        //Trigger event\n        emit HouseCreated(productCount, _name, _price, _bhk, _location, msg.sender, address(0x0),false);\n\n    }\n\n    function rentHouse(uint _id) public payable{\n        //Fetch the product\n        House memory _house = houses[_id];\n        //Fetch Owner\n        address payable _seller = _house.owner;\n        //Make sure the product is valid with valid id\n        require(_house.id > 0 && _house.id <= productCount);\n        //Require that there is enough ether\n        require(msg.value >= _house.price);\n        //Require that house has not been rented already\n        require(!_house.purchased);\n        //Require that the buyer is not the seller\n        require(_seller != msg.sender);\n        //Transfer ownership to rantee\n       // _house.owner = msg.sender;\n       _house.rentee = msg.sender;\n        //Mark as purchased\n        _house.purchased = true;\n        //update the product\n        houses[_id] = _house;\n        //Pay the seller by sending them ether\n        address(_seller).transfer(msg.value);\n        //Trigger Event\n       //  emit HouseRented(productCount, _house.name, _house.price, _house.bhk, _house.location, msg.sender,_house.rentee, true);\n       emit HouseRented(productCount, _house.name, _house.price, _house.bhk, _house.location, _house.owner, _house.rentee, true);\n\n\n    }\n\n    //allow house owner to mark house as returned.\n    function returnHouse(uint _id) public{\n         //Fetch the product\n        House memory _house = houses[_id];\n        require(_house.owner == msg.sender);\n        //Make House available again\n        _house.purchased = false;\n        //Remove Previous rentee\n        _house.rentee = address(0x0);\n        //update product\n        houses[_id] = _house;\n        //Trigger an Event\n        emit HouseReturned(productCount, _house.name, _house.price, _house.bhk, _house.location, _house.owner, _house.rentee, false);\n    }\n\n    // function verifyOwnership(uint _id, address _rentee) public view returns(bool){\n    //     //Fetch the product \n    //     House memory _house = houses[_id];\n    //     require(_house.rentee == _rentee);\n    //     //check if the house is purchased and the _rentee is same as the _house.rentee\n    //     if(_house.purchased == true && _house.rentee == _rentee){\n    //         return true;\n    //     }else {\n    //         return false;\n    //     }\n    // }\n\n    function sendHash(string memory x) public {\n        ipfsHash = x; \n    }\n\n    function getHash() public view returns (string memory x) {\n   return ipfsHash;\n    }\n\n\n\n}",
  "sourcePath": "/Users/macbook/Documents/blockchain_iot/marketplace/src/contracts/marketplace.sol",
  "compiler": {
    "name": "solc",
    "version": "0.5.0+commit.1d4f565a.Emscripten.clang"
  },
  "schemaVersion": "3.0.2",
  "updatedAt": "2020-04-04T15:07:26.325Z",
  "devdoc": {
    "methods": {}
  },
  "userdoc": {
    "methods": {}
  }
}